:100000000C94A3000C94CB000C94CB000C943908F6
:100010000C9439080C9439080C94CB000C94CB0048
:100020000C94CB000C94CB000C94CB000C94CB0024
:100030000C94CB000C94CB000C94CB000C94CB0014
:100040000C94EF070C94CB000C94CB000C94CB00D9
:100050000C94CB000C94CB000C94CB000C94CB00F4
:100060000C94CB000C94CB0000000000240027006F
:100070002A0000000000250028002B0000000000DE
:1000800023002600290004040404040404040202DA
:100090000202020203030303030301020408102007
:1000A0004080010204081020010204081020000012
:1000B0000008000201000003040700000000000027
:1000C00000007E306D79335B5F707F7B771F0D3D65
:1000D0004F4700000000000000000000000000008A
:1000E000000000000000000000000000000080018F
:1000F00080007E306D79335B5F707F7B0000000095
:10010000000000771F0D3D4F4700370000000E0034
:100110000000670000000000000000000000000078
:10012000000800771F0D3D4F4700370000000E000C
:10013000151D670000000000000000000000000026
:100140000000D117EF1811241FBECFEFD8E0DEBF9B
:10015000CDBF11E0A0E0B1E0E6E6F3E302C0059018
:100160000D92AC33B107D9F723E0ACE3B1E001C0A5
:100170001D92A930B207E1F710E0C2EAD0E004C056
:100180002197FE010E947A19C13AD107C9F70E944E
:10019000B1080C94A6190C940000833081F028F467
:1001A000813099F08230A9F008958730A9F0883025
:1001B000C9F08430B1F4809180008F7D03C08091BC
:1001C00080008F7780938000089584B58F7784BDF9
:1001D000089584B58F7DFBCF8091B0008F77809399
:1001E000B00008958091B0008F7DF9CFCF93DF9359
:1001F000282F30E0F901E255FF4F8491F901E656CE
:10020000FF4FD491F901EA57FF4FC491CC23A1F0DD
:1002100081110E94CD00EC2FF0E0EE0FFF1FE4589B
:10022000FF4FA591B491EC91ED2381E090E009F4AA
:1002300080E0DF91CF91089580E090E0FACF1F93A6
:10024000CF93DF93282F30E0F901E255FF4F8491DF
:10025000F901E656FF4FD491F901EA57FF4FC491D7
:10026000CC23A9F0162F81110E94CD00EC2FF0E0D5
:10027000EE0FFF1FEE58FF4FA591B4918FB7F89482
:10028000EC91111108C0D095DE23DC938FBFDF9174
:10029000CF911F910895DE2BF8CFCF93DF9390E09D
:1002A000FC01E656FF4F24918A579F4FFC01849131
:1002B0008823C9F090E0880F991FFC01E859FF4F8F
:1002C000A591B491FC01EE58FF4FC591D4916111F5
:1002D0000DC09FB7F8948C91209582238C938881D0
:1002E000282328839FBFDF91CF910895623051F476
:1002F0009FB7F8943C91822F809583238C93E8815B
:100300002E2BEFCF8FB7F894EC912E2B2C938FBF21
:10031000EACF3FB7F8948091AD029091AE02A091E0
:10032000AF02B091B00226B5A89B05C02F3F19F0CF
:100330000196A11DB11D3FBFBA2FA92F982F882765
:10034000BC01CD01620F711D811D911D42E0660F40
:10035000771F881F991F4A95D1F708952FB7F894F2
:100360006091A9027091AA028091AB029091AC02B7
:100370002FBF0895AF92BF92CF92DF92EF92FF927C
:100380000F931F93CF93DF936C017B018B01040FBD
:10039000151FEB015E01AE18BF08C017D10759F059
:1003A0006991D601ED91FC910190F081E02DC6019B
:1003B0000995892B79F7C501DF91CF911F910F9195
:1003C000FF90EF90DF90CF90BF90AF900895209175
:1003D000E3013091E4012817390771F49091E101AC
:1003E0008091E201981741F0E091E101F0E0EF55D2
:1003F000FE4F808190E008958FEF9FEF089508955C
:10040000EF92FF920F931F93CF93DF93DC015C96E3
:10041000ED90FC905D97E114F10479F481E090E0B7
:1004200013969C938E93129790E080E0DF91CF918A
:100430001F910F91FF90EF9008955196ED91FC91CF
:10044000529750968C915097982F90950FB75E9633
:100450002C915E97122F127021FD6095F8942081E7
:10046000112319F1282B2083E7012197F1F728E0C8
:10047000462F50E0308160FF1AC0382B3083E701EF
:100480002197F1F7BA0175956795215089F71123E6
:1004900081F08081892380830FBF5C968D919C9130
:1004A0000197F1F781E090E0C1CF2923DCCF392318
:1004B000E5CF9081892BEFCF2091E3013091E401CA
:1004C0002817390771F48091E2012091E10190E051
:1004D000805C9F4F821B910960E470E00E9440198C
:1004E000089590E080E008952091E3013091E401C7
:1004F00028173907B9F49091E1018091E20198172A
:1005000089F0E091E101F0E0EF55FE4F808120910C
:10051000E10130E02F5F3F4F2F7333272093E1013C
:1005200090E008958FEF9FEF089590E080E00895A8
:10053000862F642F0C944D01FC0181890E94F600E6
:1005400021E0892B09F420E0822F0895CF92DF92D9
:10055000EF92FF920F931F93CF93DF93EC01888567
:100560008B7F8887CE010E949C02182F88858695F4
:1005700081701817B9F00E94AE016A837B838C8367
:100580009D83888592E089278887888582FB8827D4
:1005900080F9DF91CF911F910F91FF90EF90DF9045
:1005A000CF9008950E94AE01CA80DB80EC80FD8070
:1005B000AB01BC014C195D096E097F098E819F81D9
:1005C000B0E0A0E0481759076A077B07F0F288857A
:1005D00081701817D1F20E94AE016A837B838C83ED
:1005E0009D83888591E08927846088870E94AE0179
:1005F00009851A852B853C85601B710B820B930B3B
:100600006D877E878F87988B0E94AE0169877A8776
:100610008B879C87BACFCF93DF93EC0118860E941B
:100620009C02882319F08885836088870E94AE0128
:100630006A837B838C839D83DF91CF9108954F9252
:100640005F926F927F928F929F92AF92BF92DF9252
:10065000EF92FF920F931F93CF93DF93EC01D62E6F
:1006600080909E0290909F02A090A002B090A10264
:1006700081149104A104B104A1F48091810281113B
:100680001DC0DF91CF911F910F91FF90EF90DF90F0
:10069000BF90AF909F908F907F906F905F904F90A2
:1006A00008950E94AE0120E4820E2FE1921EA11C4B
:1006B000B11C86169706A806B906F8F68E01000F3B
:1006C000111FC801825B9E4F7C01FC0180819181DA
:1006D000DD2009F444C0892BB9F40E94AE01FE016B
:1006E000EE0FFF1FEE0FFF1FEE5BFE4F6083718367
:1006F0008283938381E090E0F70191838083F80106
:10070000E45CFE4F11821082C801825B9E4F7C0127
:10071000FC0180819181019709F0B3CFCC0FDD1FDF
:10072000CC0FDD1FCE5BDE4F88809980AA80BB8016
:100730000E94AE0124013501FCEB4F0EF2E05F1E7A
:10074000611C711C4616570668067906D8F4188293
:1007500019821A821B82F7011182108292CF0197AF
:1007600099F6F801E45CFE4F8081918101969183B6
:100770008083CACF8091A202882309F454C01092CA
:10078000A20225C0DD2009F47CCFF801E45CFE4F15
:10079000808191818430914008F073CF0E94AE0136
:1007A000F0E48F0EF1E09F1EA11CB11C8616970687
:1007B000A806B90608F065CF188219821A821B8232
:1007C000F70111821082809181028111D3CF0E94A2
:1007D000AE01AB01BC0180917D0290917E02A0919F
:1007E0007F02B091800200919E0210919F022091A1
:1007F000A0023091A102801B910BA20BB30B840FBE
:10080000951FA61FB71F80937D0290937E02A09331
:100810007F02B093800210929E0210929F0210926B
:10082000A0021092A10280917702882309F429CFB7
:1008300080917C02882309F424CF1092770221CF83
:10084000CF92DF92EF92FF920F931F93CF93DF939C
:1008500000D0CDB7DEB769834A83880F991F009116
:10086000070310910803000F111FE1EBF2E09F0155
:10087000215B32402017310714F41192F8CF2981FF
:10088000FC01EF54FD4F21838A81808360E08091D9
:1008900005030E941F011016110604F501501109ED
:1008A000F801EF54FD4FE080D0900303C0900103A6
:1008B00088E0F82E6E2D661F6627661F8C2D0E941D
:1008C0001F01EE0C61E08D2D0E941F0160E08D2D57
:1008D0000E941F01FA94F110EDCFDDCF61E080910D
:1008E00005030F900F90DF91CF911F910F91FF9013
:1008F000EF90DF90CF900C941F012091070330916F
:1009000008031216130694F467FD60E2E62F660FE3
:10091000FF0BEE53FF4F4491FC01EF54FD4F408B12
:1009200061E0680F90E080E00C9420040895682F47
:1009300082E090E00C947D040F931F93CF93DF939C
:10094000EC0168E572E00E94401987E090E00E94A7
:100950007D04CE016CE370E00E9440198C01CAE076
:10096000D0E0CB01BE010E944019682F86E090E0E4
:100970000E947D04C801BE010E944019C82F85E075
:1009800090E00E947D046C2F84E090E0DF91CF9195
:100990001F910F910C947D04CF936AE070E00E9448
:1009A0004019C82F81E090E00E947D046C2F90E0F8
:1009B00080E0CF910C947D04682F83E090E00C944C
:1009C0007D0460E283E090E00E947D0460E281E0CB
:1009D00090E00E947D0460E290E080E00C947D0451
:1009E000CF93DF93EC010E94E104209729F0CE0120
:1009F000DF91CF910C94CC04DF91CF9108950F93A8
:100A00001F93CF93DF93EC018B010E94E1041C162E
:100A10001D067CF46C2F83E090E00E947D04043678
:100A2000110564F4C801DF91CF911F910F910C94CF
:100A3000CC040436110514F4CD2BA1F7DF91CF912E
:100A40001F910F91089560E283E090E00C947D0483
:100A5000462F20910703309108031216130654F411
:100A6000FC01EF54FD4F608B61E0680F90E080E087
:100A70000C9420040895EF92FF920F931F93CF934D
:100A80007C018C0183E0000F111F8A95E1F70F5361
:100A90001D4FC1E0F80111928F0140E06C2FC7019A
:100AA0000E942004CF5FC930A9F7CF911F910F9109
:100AB000FF90EF9008950E948F194AE065E771E07A
:100AC0008091A3029091A4020E940B1965E771E046
:100AD00084E591E00E949F1960E071E084E591E077
:100AE0000E9494194AE065E771E080918D0290912F
:100AF0008E020E940B1965E771E084E591E00E9487
:100B0000941960E071E084E591E00E9494194AE054
:100B100065E771E080918F02909190020E940B191D
:100B200065E771E084E591E00E94941960E071E06E
:100B300084E591E00E9494194AE065E771E08091B4
:100B40009102909192020E940B1965E771E084E591
:100B500091E00E94941960E071E084E591E00E94C8
:100B600094194AE065E771E08091930290919402B4
:100B70000E940B1965E771E084E591E00E949419E9
:100B800060E071E084E591E00E9494194AE065E735
:100B900071E080919502909196020E940B1965E791
:100BA00071E084E591E00E94941960E071E084E5D1
:100BB00091E00E9494194AE065E771E08091970204
:100BC000909198020E940B1965E771E084E591E02D
:100BD0000E94941960E071E084E591E00E9494190C
:100BE0004AE065E771E080917302909174020E947F
:100BF0000B1965E771E084E591E00E94941960E0CB
:100C000071E084E591E00E9494198091840265E38B
:100C100071E0882389F04AE065E771E080918902FC
:100C200090918A020E940B1965E771E084E591E0DA
:100C30000E94941966E371E084E591E00E949419A2
:100C400044E551E0FA0101900020E9F7AF01455574
:100C5000514064E571E085EE91E00E94BA0142E006
:100C600050E068E371E085EE91E00C94BA018F9258
:100C70009F92AF92BF92CF92DF92EF92FF920F932B
:100C80001F93CF93DF93F62E8C01000F111F000FDF
:100C9000111FEC01CC0FDD1F662339F1C8018B5603
:100CA0009E4F5C01FC0180819181A281B381892BDF
:100CB0008A2B8B2BD1F4CE0181579E4F6C01FC0106
:100CC00080819181892B89F40E94AE01F5016083B6
:100CD00071838283938381E090E0F6019183808326
:100CE000FE01E757FE4F11821082C8018B569E4FBE
:100CF0006C01FC0180809180A280B380F8EE8F0EA1
:100D0000F3E09F1EA11CB11C0E94AE01861697063F
:100D1000A806B90678F4F6011082118212821382B5
:100D2000FE01E157FE4F11821082FE01E757FE4F90
:100D300011821082CE0181579E4F6C01FC0180818F
:100D400091818130910509F42CC18430910509F01D
:100D500066C0F1103EC1FE01E757FE4F2081318190
:100D60002F5F3F4F31832083029759F5C8018B567F
:100D70009E4F7C01FC0180809180A280B3800E9404
:100D8000AE01625371098109910986169706A8067A
:100D9000B906C0F583E090E0FE01E157FE4F918374
:100DA00080830E94AE01F701608371838283938305
:100DB0000E94AE01F801E758FE4F60837183828381
:100DC0009383C157DE4F888199810397D9F4F80145
:100DD000E758FE4FC080D180E280F3800E94AE01D0
:100DE0006C5D7540810991096C157D058E059F0527
:100DF00048F40E94AE01F801EB56FE4F6083718308
:100E000082839383DF91CF911F910F91FF90EF9099
:100E1000DF90CF90BF90AF909F908F900895FF206C
:100E200009F4A2CFFE01E157FE4F8081918182300B
:100E30009105E9F1039709F043C00E94AE01F80162
:100E4000EB56FE4F608371838283938384E090E04E
:100E5000FE01E157FE4F91838083FE01E757FE4F6D
:100E6000118210822DC0CE0187579E4F5C01FC017C
:100E700080819181449708F0ACC082E090E0F60157
:100E8000918380830E94AE016093850170938601F7
:100E90008093870190938801F501118210820E944E
:100EA000AE01F7016083718382839383BBCF0E947D
:100EB000AE01F801EB56FE4F60837183828393830A
:100EC000CE0181579E4F7C01FC0180819181049766
:100ED00009F098CF0B561E4FF80180809180A280B8
:100EE000B3800E94AE01625371098109910986168F
:100EF0009706A806B90608F085CFC757DE4F888148
:100F00009981449708F07ECF19821882F8011082E7
:100F1000118212821382F701118210828091810264
:100F2000811110C08091850190918601A091870167
:100F3000B091880180939E0290939F02A093A0029B
:100F4000B093A10280917C02882309F45BCF1092B8
:100F50007C02109273021092740210927502109229
:100F60007602809104019091050190937202809322
:100F700071020E94AE0160936D0270936E028093C5
:100F80006F0290937002DF91CF911F910F91FF90AC
:100F9000EF90DF90CF90BF90AF909F908F900C9488
:100FA0005D05FF2009F4D7CEC8018B569E4F7C010A
:100FB000FC0180809180A280B3800E94AE016852C3
:100FC00071098109910986169706A806B90608F4E1
:100FD0004ACFFE01E157FE4F808191812BCF1F92B6
:100FE0000F920FB60F9211242F933F938F939F93DD
:100FF000AF93BF938091A9029091AA02A091AB02F6
:10100000B091AC023091A80223E0230F2D3758F5A0
:101010000196A11DB11D2093A8028093A90290936F
:10102000AA02A093AB02B093AC028091AD02909162
:10103000AE02A091AF02B091B0020196A11DB11D08
:101040008093AD029093AE02A093AF02B093B00232
:10105000BF91AF919F918F913F912F910F900FBEB4
:101060000F901F90189526E8230F0296A11DB11D21
:10107000D2CF1F920F920FB60F9211242F933F934E
:101080004F935F936F937F938F939F93AF93BF9390
:10109000EF93FF93E091E301F091E401309749F081
:1010A000A685B7858585968D91FF14C09C9189236F
:1010B000A1F4FF91EF91BF91AF919F918F917F919B
:1010C0006F915F914F913F912F910F900FBE0F90B5
:1010D0001F9018959C91892361F7A389B4899C91ED
:1010E0008589809589238C93868997890197F1F763
:1010F000608D718DA685B785558538E020E0CB01E0
:101100000197F1F7822F90E095958795282F4C91C4
:10111000452309F02068315091F7868D81FD209597
:101120008091E20190E001968F7399273091E1015F
:10113000381799F0A091E201B0E0AF55BE4F2C9363
:101140008093E201828D938D0197F1F7A389B48991
:101150008C919589892B8C93ACCF868D8160868FFD
:10116000F1CFCF93DF93CDB7DEB760970FB6F8948A
:10117000DEBF0FBECDBF789484B5826084BD84B5D8
:10118000816084BD85B5826085BD85B5816085BD82
:1011900080916E00816080936E001092810080913A
:1011A00081008260809381008091810081608093C2
:1011B0008100809180008160809380008091B100E7
:1011C00084608093B1008091B00081608093B00012
:1011D00080917A00846080937A0080917A008260A6
:1011E00080937A0080917A00816080937A00809168
:1011F0007A00806880937A001092C1008091070382
:10120000909108031816190634F441E06CE090E060
:1012100080E00E9420048091070390910803181633
:10122000190634F448E06AE090E080E00E9420046F
:1012300080910703909108031816190624F490E092
:1012400080E00E943B050E9489016B017C017DEEDC
:10125000872E73E0972EA12CB12C0E9489016C1966
:101260007D098E099F09683E734081059105A8F3A9
:1012700021E0821A9108A108B10838EEC30E33E0CC
:10128000D31EE11CF11C81149104A104B10429F7BF
:10129000109200021092FF011092FE011092FD01C7
:1012A0001092FC011092FB018DE991E090930202F3
:1012B000809301029091F101963108F047C02DEB27
:1012C00030E03093FC012093FB012BE931E03093B7
:1012D000FE012093FD012CE231E0309300022093C7
:1012E000FF012091680084E0983048F031E09E30A2
:1012F00008F430E081E001C0880F3A95EAF7822BCC
:10130000809368002DE630E0983050F02BE630E016
:101310009E3030F02CE630E0963110F030E020E0E6
:101320003093F9012093F801292F30E0983008F02C
:1013300029C281E001C0880F9A95EAF78093FA01EB
:1013400080910102909102020197F1F78091FF01D3
:1013500090910002892B49F1E091E301F091E401C1
:1013600051E0E53EF50709F1309739F0A389B489DA
:101370009C918589809589238C93809103028E7F2F
:10138000809303021092E2011092E10185EE91E058
:101390009093E4018093E301E091F801F091F90169
:1013A00080819091FA01892B808360E082E00E9425
:1013B0004D0160E083E00E944D0160E084E00E9406
:1013C0004D0182E080936C028BE592E00E940B035A
:1013D00084E190E0909362028093610283E08093C5
:1013E0005A0289E492E00E940B03A4E1B0E0B093BA
:1013F0005002A0934F0284E08093480287E392E07A
:101400000E940B0354E1C52ED12CD0923E02C09213
:101410003D0261E085E00E944D0161E085E00E94AF
:101420001F0162E08EE00E944D0162E08FE00E94A9
:101430004D0162E080E10E944D0162E081E10E9485
:101440004D010CE310E0412C512C320143943AE061
:10145000232E49E0342E8EE00E94F6009A83898381
:101460008FE00E94F6009E838D8380E10E94F6004B
:101470007C0181E10E94F60098878F838091A7020A
:10148000863008F05AC38EE00E94F6005C018FE0BF
:101490000E94F6006C0180E10E94F6009A8789871D
:1014A00081E10E94F6009C878B87AB28F9F40E94AB
:1014B000AE01645F714081099109809013029090A0
:1014C0001402A0901502B090160286169706A80680
:1014D000B90660F40E94AE01609313027093140287
:1014E00080931502909316021092A702CD2809F05E
:1014F000C6C0D090A7020E94AE01645F714081090E
:10150000910980900E0290900F02A0901002B0906E
:10151000110286169706A806B90608F0B0C00E9408
:10152000AE0160930E0270930F02809310029093AD
:10153000110260E287E090E00E947D0460E286E0B4
:1015400090E00E947D0460E285E090E00E947D04CE
:1015500060E284E090E00E947D0460E283E090E03D
:101560000E947D0460E282E090E00E947D0460E2DF
:1015700081E090E00E947D0460E290E080E00E94C3
:101580007D0425E02D1538F0D394D092A702109257
:101590000502109204028091A702863009F06FC004
:1015A0000E94AE014B015C01C0900B01D0900C0178
:1015B000C6010D2C000CAA0BBB0B8093A3029093C9
:1015C000A402A093A502B093A6028091020190917B
:1015D0000301092E000CAA0BBB0B80938902909388
:1015E0008A02A0938B02B0938C0210928502109213
:1015F0008602109287021092880228EE33E0D6010C
:101600000E945419860E971EA81EB91E80927D0254
:1016100090927E02A0927F02B09280020E94AE0160
:1016200060939E0270939F028093A0029093A10208
:1016300010928E0210928D021092900210928F02E0
:1016400010929202109291021092940210929302C0
:1016500010929602109295021092980210929702A0
:10166000109299021092840210927C0210927702DA
:10167000C6010E949C040E9423050E945D05C98446
:10168000DA84CD2809F01EC10E94AE01645F71406A
:101690008109910980900A0290900B02A0900C029F
:1016A000B0900D0286169706A806B906F0F40E94BF
:1016B000AE0160930A0270930B0280930C02909328
:1016C0000D0280910502863018F48F5F8093050229
:1016D0008091A702833009F4D7C008F060C0813040
:1016E00009F488C0823009F4AAC0CB84DC84CD28F8
:1016F00009F0B3C10E94AE01645F71408109910994
:101700008090060290900702A0900802B090090213
:1017100086169706A806B906F0F40E94AE016093FB
:101720000602709307028093080290930902809149
:101730000402863018F48F5F809304028091A70220
:10174000833009F45BC108F0C0C0813009F4F4C0F3
:10175000823009F422C18091A702823009F4DDC1F0
:1017600008F07EC1882309F48AC1813009F086CE51
:1017700080910B0190910C010E949C0481E40E94D5
:10178000DC047CCE9E3040F42850310981E001C059
:10179000880F2A95EAF7D2CD2E503109F7CF843041
:1017A00009F486C0853009F0A0CF40910502E42FEE
:1017B000F0E0EE0FFF1FE95DFE4F20813181809147
:1017C000020190910301280F391F309303012093E8
:1017D0000201463009F089CFC901B8010E944019C1
:1017E000009709F482CF281B390B30930301209313
:1017F00002017BCF40910502E42FF0E0EE0FFF1FC6
:10180000E95DFE4F2081318180910B0190910C01A7
:10181000280F391F30930C0120930B01463009F03B
:1018200064CFC901B8010E944019009709F45DCF47
:10183000281B390B30930C0120930B0156CF40919C
:101840000502E42FF0E0EE0FFF1FE95DFE4F20815F
:1018500031818091060190910701280F391F309343
:10186000070120930601463009F03FCFC901B801B6
:101870000E944019009709F438CF281B390B309388
:1018800007012093060131CFE0910502F0E0EE0F51
:10189000FF1FE95DFE4F80910401909105012081B9
:1018A0003181820F931F90930501809304011DCF16
:1018B00080918102DD24D3948D25809381028093D1
:1018C000A20213CF1092050210CF843009F4BBC0DE
:1018D000853009F040CF40910402E42FF0E0EE0F94
:1018E000FF1FE95DFE4F20910201309103018081CD
:1018F0009181281B390B309303012093020146305C
:1019000061F4C901B8010E944019009731F0281B09
:10191000390B3093030120930201809102019091D1
:101920000301181619060CF4A2C081E090E0909310
:101930000301809302010FCF40910402E42FF0E0F5
:10194000EE0FFF1FE95DFE4F20910B0130910C015E
:1019500080819181281B390B30930C0120930B015E
:10196000463061F4C901B8010E944019009731F076
:10197000281B390B30930C0120930B0180910B0134
:1019800090910C01181619060CF4F2CE81E090E04B
:1019900090930C0180930B01DECE40910402E42F62
:1019A000F0E0EE0FFF1FE95DFE4F20910601309140
:1019B000070180819181281B390B30930701209307
:1019C0000601463061F4C901B8010E944019009730
:1019D00031F0281B390B30930701209306018091C9
:1019E000060190910701181619060CF496C081E0C3
:1019F00090E09093070180930601ADCEE091040240
:101A0000F0E0EE0FFF1FE95DFE4F80910401909121
:101A1000050120813181821B930B1816190664F48D
:101A20009093050180930401809104019091050138
:101A30000E949C0483E4A3CE81E090E09093050192
:101A40008093040188CE80918102DD24D3948D257A
:101A5000809381028093A2027ECE109204027BCEFC
:101A6000843009F462C000F3853009F007CD80911D
:101A70000201909103010E949C0485E480CE6BE5F5
:101A800087E090E00E94280565E686E090E00E94ED
:101A90007D046FE085E090E00E9428056EE384E01D
:101AA00090E00E94280560E783E090E00E947D04BA
:101AB00060E282E090E00E947D0460E281E090E0DC
:101AC0000E947D0460E290E080E00E947D0410921C
:101AD0008E0210928D021092900210928F0210923C
:101AE000920210929102109294021092930210921C
:101AF00096021092950210929802109297021092FC
:101B00007302109274021092750210927602109273
:101B10007C0221E02093A202B1CC80910601909139
:101B200007010E949C0482E42ACE6091810287E032
:101B300090E00E947D0484E422CEC980DA80CD2822
:101B400009F58090130290901402A0901502B090B5
:101B500016020E94AE01685E7340810991098616E3
:101B60009706A806B90670F40E94AE0160931302AE
:101B7000709314028093150290931602DD24D3947F
:101B8000D09212028090130290901402A09015023D
:101B9000B090160220ED820E27E0921EA11CB11C0F
:101BA0000E94AE0186169706A806B90670F48091C9
:101BB0001202882341F08091A3029091A4020E9416
:101BC0009C040E94230510921202D0901202DD2084
:101BD00041F165E087E090E00E94280565E686E037
:101BE00090E00E947D046BE585E090E00E9428056E
:101BF00065E684E090E00E947D046FE083E090E081
:101C00000E94280560E282E090E00E947D0460E28C
:101C100081E090E00E947D0460E290E080E00E941C
:101C20007D044D815E81452B09F04BC00E94AE01C1
:101C3000685E73408109910980900E0290900F02B6
:101C4000A0901002B090110286169706A806B90659
:101C5000C0F50E94AE0160930E0270930F02809354
:101C6000100290931102D1101092A70280919E024F
:101C700090919F02A091A002B091A102892B8A2B82
:101C80008B2B21F4809181028823D9F080917C02F2
:101C9000882309F4B1C71092730210927402109253
:101CA00075021092760210927C0260917A02709115
:101CB0007B0280917802909179020E94FF040E9439
:101CC0005D05E114F10409F046C00E94AE01685EB2
:101CD00073408109910980900A0290900B02A090B4
:101CE0000C02B0900D0286169706A806B90698F564
:101CF0000E94AE0160930A0270930B0280930C0263
:101D000090930D02EDE8F2E0DF0190E080E02D918C
:101D10003D91232B09F08EC7880F991FDC01A35733
:101D2000BD4F80910601909107018D939C93819105
:101D30009191892B19F09FEFE91AF90AA2E0E9398C
:101D4000FA07A9F7F0927902E09278026E2D83E00B
:101D500090E00E947D04CF80D884CD2809F056C041
:101D60000E94AE016052734081099109C090060241
:101D7000D0900702E0900802F0900902C616D7063C
:101D8000E806F90608F042C00E94AE016093060220
:101D9000709307028093080290930902C0909E02FC
:101DA000D0909F02E090A002F090A1028091810269
:101DB000C114D104E104F10409F44AC7811140C7F8
:101DC0000E94AE01AB01BC0180917D0290917E0228
:101DD000A0917F02B09180028C199D09AE09BF09C4
:101DE000840F951FA61FB71F80937D0290937E02DC
:101DF000A0937F02B093800210929E0210929F02E5
:101E00001092A0021092A1020E945D0580918302AF
:101E1000882309F45CC1813089F40E94AE0160938B
:101E20001702709318028093190290931A0282E0AD
:101E30008093830260E085E00E941F01809183020D
:101E40008230B1F40E94AE016C5D75408109910948
:101E5000C0901702D0901802E0901902F0901A0278
:101E6000C616D706E806F906C0F483E0809383021D
:101E700080918302833089F40E94AE01609317023F
:101E8000709318028093190290931A0284E0809351
:101E9000830261E085E00E941F018091830284300B
:101EA000B1F40E94AE01645F714081099109C09054
:101EB0001702D0901802E0901902F0901A02C6168C
:101EC000D706E806F906C0F485E080938302809186
:101ED0008302853089F40E94AE01609317027093EB
:101EE00018028093190290931A0286E0809383026D
:101EF00060E085E00E941F01809183028630B1F48A
:101F00000E94AE016C5D754081099109C090170275
:101F1000D0901802E0901902F0901A02C616D70667
:101F2000E806F906C0F487E080938302809183027B
:101F3000873089F40E94AE016093170270931802F3
:101F40008093190290931A0288E08093830261E0E3
:101F500085E00E941F01809183028830A9F40E94CD
:101F6000AE01645F714081099109C0901702D09061
:101F70001802E0901902F0901A02C616D706E80679
:101F8000F906B0F43092830280918302893081F4A3
:101F90000E94AE0160931702709318028093190299
:101FA00090931A022092830260E085E00E941F0154
:101FB000809183028A30B9F40E94AE016C5D754055
:101FC00081099109C0901702D0901802E09019027F
:101FD000F0901A02C616D706E806F906D0F42BE0F0
:101FE000D22ED0928302809183028B3091F40E9492
:101FF000AE016093170270931802809319029093B8
:102000001A029CE0E92EE092830261E085E00E94E2
:102010001F01809183028C30B9F40E94AE01645F8D
:10202000714081099109C0901702D0901802E09088
:102030001902F0901A02C616D706E806F906C8F487
:102040008DE0F82EF0928302809183028D3089F426
:102050000E94AE01609317027093180280931902D8
:1020600090931A028EE08093830260E085E00E94E4
:102070001F01809183028E30B1F40E94AE016C5D2D
:10208000754081099109C0901702D0901802E09024
:102090001902F0901A02C616D706E806F906B8F437
:1020A0008FE080938302809183028F3081F40E94BD
:1020B000AE016093170270931802809319029093F7
:1020C0001A0261E085E00E941F0110928302809154
:1020D0008202882309F4B7C1813089F40E94AE01DD
:1020E00060931702709318028093190290931A025A
:1020F00082E08093820260E085E00E941F0180916F
:1021000082028230B1F40E94AE016A5F71098109D6
:102110009109C0901702D0901802E0901902F09037
:102120001A02C616D706E806F906C0F483E08093C3
:10213000820280918202833089F40E94AE01609312
:102140001702709318028093190290931A0284E088
:102150008093820261E085E00E941F0180918202EB
:102160008430B1F40E94AE01685C71098109910963
:10217000C0901702D0901802E0901902F0901A0255
:10218000C616D706E806F906C0F485E080938202F9
:1021900080918202853089F40E94AE01609317021B
:1021A000709318028093190290931A0286E080932C
:1021B000820260E085E00E941F01809182028630E9
:1021C000B1F40E94AE016A5F710981099109C09062
:1021D0001702D0901802E0901902F0901A02C61669
:1021E000D706E806F906C0F487E080938202809162
:1021F0008202873089F40E94AE01609317027093C7
:1022000018028093190290931A0288E08093820248
:1022100061E085E00E941F01809182028830A9F46C
:102220000E94AE01685C710981099109C090170292
:10223000D0901802E0901902F0901A02C616D70644
:10224000E806F906B0F43092820280918202893069
:1022500081F40E94AE01609317027093180280937C
:10226000190290931A022092820260E085E00E9497
:102270001F01809182028A30B1F40E94AE016A5F30
:10228000710981099109C0901702D0901802E0905D
:102290001902F0901A02C616D706E806F906C0F42D
:1022A0002BE020938202809182028B3089F40E947D
:1022B000AE016093170270931802809319029093F5
:1022C0001A023CE03093820261E085E00E941F0127
:1022D000809182028C30B1F40E94AE01685C710979
:1022E00081099109C0901702D0901802E09019025C
:1022F000F0901A02C616D706E806F906C0F44DE0BB
:1023000040938202809182028D3089F40E94AE0156
:1023100060931702709318028093190290931A0227
:102320008EE08093820260E085E00E941F01809130
:1023300082028E30B1F40E94AE016A5F7109810998
:102340009109C0901702D0901802E0901902F09005
:102350001A02C616D706E806F906C0F48FE0809385
:102360008202809182028F3089F40E94AE016093D4
:102370001702709318028093190290931A0280E159
:102380008093820261E085E00E941F0180918202B9
:102390008031B1F40E94AE01685C71098109910934
:1023A000C0901702D0901802E0901902F0901A0223
:1023B000C616D706E806F906C0F481E180938202CA
:1023C00080918202813189F40E94AE0160931702EC
:1023D000709318028093190290931A0282E18093FD
:1023E000820260E085E00E941F01809182028231BA
:1023F000B1F40E94AE016A5F710981099109C09030
:102400001702D0901802E0901902F0901A02C61636
:10241000D706E806F906B8F483E18093820280913A
:102420008202833181F40E94AE016093170270939F
:1024300018028093190290931A0261E085E00E94CD
:102440001F01109282028BE592E00E94A60289E4AD
:1024500092E00E94A60287E392E00E94A602809189
:10246000630280FD59C08091330290913402A091A3
:102470003502B0913602892B8A2B8B2B09F06AC06A
:10248000C0902F02D0903002E0903102F0903202E2
:1024900050EDC50E57E0D51EE11CF11C0E94AE01A7
:1024A000C616D706E806F90698F5C0902B02D0901C
:1024B0002C02E0902D02F0902E0280EDC80E87E0F5
:1024C000D81EE11CF11C0E94AE01C616D706E80614
:1024D000F906F0F40E94AE01609333027093340267
:1024E00080933502909336020E94AE0160932702DA
:1024F000709328028093290290932A020E94AE01D1
:102500006093230270932402809325029093260205
:102510008091630280FF1EC0C0902302D0902402ED
:10252000E0902502F090260294E6C90ED11CE11C31
:10253000F11C0E94AE01C616D706E806F90650F453
:102540001092330210923402109235021092360229
:1025500010920A01C0903302D0903402E09035020C
:10256000F0903602C114D104E104F104C9F00E94D4
:10257000AE01A4E1CA0ED11CE11CF11CC616D7069F
:10258000E806F90668F4B1E0B0930A010E94AE01D2
:1025900060932702709328028093290290932A0265
:1025A0008091510280FD59C080911F0290912002BC
:1025B000A0912102B0912202892B8A2B8B2B09F04A
:1025C0006AC0C0902702D0902802E0902902F090C3
:1025D0002A0220EDC20E27E0D21EE11CF11C0E944F
:1025E000AE01C616D706E806F90698F5C0902B028C
:1025F000D0902C02E0902D02F0902E0230EDC30E10
:1026000037E0D31EE11CF11C0E94AE01C616D706AE
:10261000E806F906F0F40E94AE0160931F02709381
:10262000200280932102909322020E94AE016093C7
:102630002F027093300280933102909332020E94F5
:10264000AE0160932302709324028093250290933D
:1026500026028091510280FF1EC0C0902302D090BC
:102660002402E0902502F090260244E6C40ED11C1C
:10267000E11CF11C0E94AE01C616D706E806F90659
:1026800050F410921F021092200210922102109218
:10269000220210920901C0901F02D0902002E09007
:1026A0002102F0902202C114D104E104F104C9F026
:1026B0000E94AE0154E1C50ED11CE11CF11CC616EE
:1026C000D706E806F90668F481E0809309010E94C4
:1026D000AE0160932F027093300280933102909389
:1026E000320280913F0280FD59C080911B0290917F
:1026F0001C02A0911D02B0911E02892B8A2B8B2BEC
:1027000009F06AC0C0902F02D0903002E0903102F0
:10271000F090320290EDC90E97E0D91EE11CF11C39
:102720000E94AE01C616D706E806F90698F5C090D5
:102730002702D0902802E0902902F0902A02A0ED12
:10274000CA0EA7E0DA1EE11CF11C0E94AE01C616FB
:10275000D706E806F906F0F40E94AE0160931B026A
:1027600070931C0280931D0290931E020E94AE0182
:1027700060932B0270932C0280932D0290932E0273
:102780000E94AE016093230270932402809325027D
:102790009093260280913F0280FF1EC0C0902302CA
:1027A000D0902402E0902502F0902602B4E6CB0EF1
:1027B000D11CE11CF11C0E94AE01C616D706E8062A
:1027C000F90650F410921B0210921C0210921D0286
:1027D00010921E0210920801C0901B02D0901C02A1
:1027E000E0901D02F0901E02C114D104E104F10436
:1027F000C9F00E94AE0124E1C20ED11CE11CF11C03
:10280000C616D706E806F90668F431E030930801E9
:102810000E94AE0160932B0270932C0280932D02D4
:1028200090932E028091A3029091A402A091A50200
:10283000B091A602892B8A2B8B2B09F092C041E024
:102840004093A20280910B0190910C01092E000C83
:10285000AA0BBB0B8093A3029093A402A093A502A2
:10286000B093A60240929E0250929F026092A002F4
:102870007092A10210929A0210929B0210929C02F6
:1028800010929D0280919902882309F40BC2109244
:102890008E0210928D021092900210928F0210926E
:1028A000920210929102109294021092930210924E
:1028B000960210929502109298021092970210922E
:1028C00099024092890250928A0260928B02709221
:1028D0008C0260E283E090E00E947D0460E282E08E
:1028E00090E00E947D0460E281E090E00E947D041F
:1028F00060E290E080E00E947D040E945D0580918E
:10290000850290918602A0918702B0918802892B5E
:102910008A2B8B2B19F58091840281111FC00E9494
:10292000AE016B017C012091890230918A024091B5
:102930008B0250918C02A8EEB3E00E945B19C60E88
:10294000D71EE81EF91EC0928502D0928602E09240
:102950008702F092880281E08093840291E0909354
:1029600083028090A3029090A402A090A502B09050
:10297000A602A8EEB3E0A50194010E945B19C090E5
:102980007D02D0907E02E0907F02F0908002A7014D
:102990009601261B370B480B590B2D873E874F8717
:1029A000588B0E94AE01C0909A02D0909B02E0909A
:1029B0009C02F0909D02C982DA82EB82FC82AB011C
:1029C000BC014C195D096E097F09CD84DE84EF845A
:1029D000F888C416D506E606F70608F062C04091EE
:1029E0009E0250919F026091A0027091A102452B1E
:1029F000462B472B49F020918102222309F451C034
:102A00002091A20221114DC0F0907C02FF2009F418
:102A100052C121E082169104A104B10409F04BC116
:102A200089819A81AB81BC8188519C4FAF4FBF4F48
:102A300080939A0290939B02A0939C02B0939D0274
:102A40008091A3029091A4020E949C0460910601CF
:102A500070910701EDE8F2E090E080E02191319182
:102A60002115310559F0019621503109DF011297E6
:102A70002D933C93261737070CF4B90149E952E02E
:102A80004E175F0759F770937B0260937A02909319
:102A9000790280937802F1101CC10E94FF040E9409
:102AA0005D0580918402882309F486C080908902A4
:102AB00090908A02A0908B02B0908C02A8EEB3E0B6
:102AC000A50194010E945B19C0908502D0908602F6
:102AD000E0908702F0908802C61AD70AE80AF90A3D
:102AE0000E94AE01C616D706E806F90608F064C0D3
:102AF00081E0881A9108A108B10880928902909219
:102B00008A02A0928B02B0928C02C4010E949C04A3
:102B100089288A288B2809F04DC0109285021092CE
:102B20008602109287021092880280910201909191
:102B30000301092E000CAA0BBB0B80938902909312
:102B40008A02A0938B02B0938C02109284020E949E
:102B5000AE014B015C01E0900B01F0900C01C7014C
:102B60000F2C000CAA0BBB0B8093A3029093A40222
:102B7000A093A502B093A60228EE33E0D7010E94ED
:102B80005419860E971EA81EB91E80927D0290923F
:102B90007E02A0927F02B09280020E94AE016093FA
:102BA0009E0270939F028093A0029093A102C7019E
:102BB0000E949C040E945D05E0907102F0907202F8
:102BC000E114F10409F400C10E94AE0180906D028D
:102BD00090906E02A0906F02B090700268517C4F8E
:102BE0008F4F9F4F86169706A806B90608F0DEC0DD
:102BF000C7010E94F004E8C080918102882319F087
:102C000051E05093770281E080937C02809104012F
:102C100090910501AC01092E000C660B770B4093D7
:102C200073025093740260937502709376020E944F
:102C3000CC0445C801968630910509F068C877C86C
:102C40008091A202882309F4DFC81092A202B8C8BA
:102C500081110AC00E94AE0160939E0270939F0290
:102C60008093A0029093A1028091770290917C02C0
:102C7000992309F4C9C8811190C110927C02109265
:102C80007302109274021092750210927602609193
:102C90007A0270917B0280917802909179020E9471
:102CA000FF04B2C851E05093990267E382E090E0DC
:102CB0000E94280524CE31E0831A9108A108B108AA
:102CC0008092A3029092A402A092A502B092A602C2
:102CD000B7CE809181028823A9F080917702882362
:102CE00089F080910401909105010196092E000C54
:102CF000AA0BBB0B8093730290937402A09375028E
:102D0000B09376028091730290917402A091750243
:102D1000B09176020097A105B10569F00197A1096C
:102D2000B1098093730290937402A0937502B093DB
:102D300076020E94CC048091730290917402A0915B
:102D40007502B0917602892B8A2B8B2B09F0A7CEC6
:102D500080919A0290919B02A0919C02B0919D0259
:102D6000892B8A2B8B2B51F40E94AE0160939E021B
:102D700070939F028093A0029093A10210927C0214
:102D800051E050938202809104019091050190934B
:102D90007202809371020E94AE0160936D02709383
:102DA0006E0280936F029093700279CE0E94AE0102
:102DB00064527A4F8F4F9F4F86169706A806B90622
:102DC00008F05FC00E94E104F0900A01FF2009F4BE
:102DD000C3C060E085E00E941F0181E60E94970465
:102DE00080919E0290919F02A091A002B091A102B9
:102DF000892B8A2B8B2BA9F480918402811111C01D
:102E00006F2D90E080E00E9437066091090181E01B
:102E100090E00E9437066091080182E090E00E94F5
:102E2000370680919E0290919F02A091A002B091DE
:102E3000A102892B8A2B8B2B21F48091810288237C
:102E4000B1F080918402811112C060910A0190E07A
:102E500080E00E941F036091090181E090E00E94E0
:102E60001F036091080182E090E00E941F03A0E030
:102E7000B0E0AB2B11F40C942B0A0E9400000C94D0
:102E8000270A0E94AE016C53764F8F4F9F4F8616D4
:102E90009706A806B90608F4ABCE0E94AE016854A6
:102EA000744F8F4F9F4F86169706A806B90608F4F1
:102EB00089CF0E94AE016056704F8F4F9F4F86168C
:102EC0009706A806B90608F493CE0E94AE016C5688
:102ED0007E4E8F4F9F4F86169706A806B90608F4B8
:102EE00071CF0E94AE0164587A4E8F4F9F4F861665
:102EF0009706A806B90608F47BCE0E94AE01605979
:102F0000784E8F4F9F4F86169706A806B90608F48D
:102F100059CF0E94AE01685A744E8F4F9F4F86164C
:102F20009706A806B90608F463CE109272021092B2
:102F3000710210926D0210926E0210926F02109246
:102F4000700260917A0270917B0280917802909178
:102F500079020E94FF0438CF80910901882331F063
:102F600060E085E00E941F0182E638CF8091080171
:102F7000882331F060E085E00E941F0183E62ECFB8
:102F80008091830281112CCF80918202811128CF00
:102F900061E085E00E941F0123CF109277020C941C
:102FA000040FCF93DF931092E8011092E70188EEAF
:102FB00093E0A0E0B0E08093E9019093EA01A09350
:102FC000EB01B093EC0189E191E09093E6018093ED
:102FD000E5011092FC011092FB011092FE0110928B
:102FE000FD01109200021092FF0110920202109255
:102FF0000102609103026E7F6D7F6093030266950C
:10300000617081E0682788E00E941F0161E088E02C
:103010000E944D01E2EAF0E0E491E093F501EEE870
:10302000F0E0E491F0E0EE0FFF1FEE58FF4F8591C6
:1030300094919093F7018093F60160E089E00E94FB
:103040004D018091030281FD04C061E089E00E948E
:103050001F0189E08093F101E3EAF0E0E491E0935D
:10306000F201EFE8F0E0E491F0E0EE0FFF1FE4582A
:10307000FF4F859194919093F4018093F301CCE0FC
:10308000D0E0D0930203C09301038BE090E09093D3
:103090000403809303038AE090E0909306038093F7
:1030A000050381E090E0909308038093070361E0BB
:1030B0008CE00E944D0161E0809103030E944D016C
:1030C00061E0809105030E944D0161E0809105035C
:1030D0000E941F01D0930203C0930103E1ECF2E0D0
:1030E000119283E0E130F807D9F7D0E0C0E0809199
:1030F000070390910803C817D90774F540E06FE003
:10310000CE010E9420048091070390910803C81704
:10311000D9072CF447E06BE0CE010E94200440E088
:1031200069E0CE010E94200480910703909108037A
:10313000C817D9071CF4CE010E943B0580910703F4
:1031400090910803C817D9072CF440E06CE0CE0139
:103150000E9420042196CBCF10925D0210925E0255
:1031600010925F02109260022AE030E03093620217
:10317000209361021092630281E191E090935C02DE
:1031800080935B0210926C0210924B0210924C02E0
:1031900010924D0210924E023093500220934F0233
:1031A0001092510290934A028093490210925A025F
:1031B0001092390210923A0210923B0210923C0295
:1031C00030933E0220933D0210923F0290933802CA
:1031D0008093370210924802DF91CF91089589E1E0
:1031E00091E09093E6018093E5018091E301909155
:1031F000E401855E914071F4E091F801F091F901EC
:1032000090818091FA018095892380831092E40156
:103210001092E3010895BB274A3031F4992322F438
:10322000BDE2909581959F4F0C941719BB27FB0128
:103230005527AA27880F991FAA1FA41710F0A41BAF
:1032400083955051B9F7A05DAA3308F0A95DA19309
:10325000009779F7B111B1931192CB010C94301909
:10326000DC01FC01672F71917723E1F7329704C0ED
:103270007C916D9370836291AE17BF07C8F3089578
:1032800097FB072E16F4009407D077FD09D00E9413
:10329000661907FC05D03EF4909581959F4F0895DF
:1032A000709561957F4F08950E948019B7FF08952A
:1032B000821B930B08950E948019A59F900DB49FC7
:1032C000900DA49F800D911D11240895AA1BBB1B76
:1032D00051E107C0AA1FBB1FA617B70710F0A61B16
:1032E000B70B881F991F5A95A9F780959095BC0137
:1032F000CD010895EE0FFF1F0590F491E02D099484
:10330000A29FB001B39FC001A39F700D811D112426
:10331000911DB29F700D811D1124911D089581E0B2
:1033200090E0F8940C94A619FB01DC010D900020AC
:10333000E9F7119701900D920020E1F70895FB0144
:10334000DC0101900D920020E1F7089510E0C2EA3F
:10335000D0E004C0FE010E947A192196C33AD10739
:06336000C9F7F894FFCF4D
:103366003B002C012D0078000101018403000000C0
:10337600009C029802000000000002BA019502FFBC
:10338600015C027402E70100000100020005000A68
:0C339600001E003C003053000D0A000037
:00000001FF
