:100000000C94A3000C94CB000C94CB000C94AD0189
:100010000C94AD010C94AD010C94CB000C94CB006E
:100020000C94CB000C94CB000C94CB000C94CB0024
:100030000C94CB000C94CB000C94CB000C94CB0014
:100040000C94B5080C94CB000C94CB000C94CB0012
:100050000C94CB000C94CB000C94CB000C94CB00F4
:100060000C94CB000C94CB0000000000240027006F
:100070002A0000000000250028002B0000000000DE
:1000800023002600290004040404040404040202DA
:100090000202020203030303030301020408102007
:1000A0004080010204081020010204081020000012
:1000B0000008000201000003040700000000000027
:1000C00000007E306D79335B5F707F7B771F0D3D65
:1000D0004F4700000000000000000000000000008A
:1000E000000000000000000000000000000080018F
:1000F00080007E306D79335B5F707F7B0000000095
:10010000000000771F0D3D4F4700370000000E0034
:100110000000670000000000000000000000000078
:10012000000800771F0D3D4F4700370000000E000C
:10013000151D670000000000000000000000000026
:1001400000000F19F31811241FBECFEFD8E0DEBF57
:10015000CDBF11E0A0E0B1E0E4EBF5E302C0059013
:100160000D92AC33B107D9F723E0ACE3B1E001C0A5
:100170001D92A431B207E1F710E0C2EAD0E004C05A
:100180002197FE010E94A11AC13AD107C9F70E9426
:10019000FF080C94CD1A0C940000CF92DF92EF92DE
:1001A000FF920F931F93CF93DF936C017A018B0122
:1001B000C0E0D0E0CE15DF0581F0D8016D918D0152
:1001C000D601ED91FC910190F081E02DC6010995D9
:1001D000892B11F02196EECF7E01C701DF91CF91DF
:1001E0001F910F91FF90EF90DF90CF900895209195
:1001F0003E0130913F012817390771F490913C017D
:1002000080913D01981741F0E0913C01F0E0ED58FC
:10021000FD4F808190E008958FEF9FEF089508953E
:100220001F93CF93DF93DC015C968D919C915D973A
:10023000009739F421E030E013963C932E93129707
:100240003BC05196ED91FC91529750962C9150974E
:10025000322F30951FB75E964C915E97742F727057
:1002600041FD6095F8944081772311F0422B01C045
:1002700043234083EC012197F1F748E0508160FF70
:1002800002C0522B01C053235083EC012197F1F798
:100290006695415099F78081772319F083238083F5
:1002A00002C0282B20831FBF5C968D919C915D9787
:1002B0000197F1F781E090E0DF91CF911F910895D0
:1002C00020913E0130913F012817390771F4809148
:1002D0003D0120913C0190E0805C9F4F821B910981
:1002E00060E470E00E94671A089580E090E008954D
:1002F00020913E0130913F0128173907B9F49091C0
:100300003C0180913D01981789F0E0913C01F0E0BB
:10031000ED58FD4F808120913C0130E02F5F3F4F31
:100320002F73332720933C0190E008958FEF9FEFC8
:100330000895089580E090E008950E94B61A862FEF
:10034000642F0C94CD07FC0181890E94C40621E032
:10035000892B09F420E0822F08951F920F920FB687
:100360000F9211242F933F934F935F936F937F933B
:100370008F939F93AF93BF93EF93FF93E0913E01D1
:10038000F0913F01309709F451C0968DA685B7854D
:10039000858591FF04C09C91892329F447C09C91D5
:1003A000892309F043C0A389B4899C9185898095EC
:1003B00089238C93868997890197F1F7608D718DD8
:1003C000A685B785558538E020E0CB010197F1F788
:1003D000822F90E095958795282F4C91452309F021
:1003E0002068315091F7868D81FD209580913D01E7
:1003F00090E001968F73992730913C01381749F0AE
:10040000A0913D01B0E0AD58BD4F2C9380933D01CC
:1004100003C0868D8160868F828D938D0197F1F761
:10042000A389B4899C918589892B8C93FF91EF9145
:10043000BF91AF919F918F917F916F915F914F91FC
:100440003F912F910F900FBE0F901F901895682F1E
:1004500082E090E00C9479070F931F93CF93DF9382
:10046000EC0168E572E00E94671A87E090E00E9464
:100470007907CE016CE370E00E94671A8C01CAE034
:10048000D0E0CB01BE010E94671A682F86E090E0A1
:100490000E947907C801BE010E94671AC82F85E033
:1004A00090E00E9479076C2F84E090E0DF91CF917B
:1004B0001F910F910C947907CF936AE070E00E942E
:1004C000671AC82F81E090E00E9479076C2F80E0C6
:1004D00090E0CF910C947907682F83E090E00C9422
:1004E000790760E283E090E00E94790760E281E0B2
:1004F00090E00E94790760E280E090E00C94790738
:10050000CF93DF93EC010E947102209729F0CE0176
:10051000DF91CF910C945C02DF91CF9108950F93FE
:100520001F93CF93DF93EC018B010E9471021C1685
:100530001D067CF46C2F83E090E00E94790704365E
:10054000110564F4C801DF91CF911F910F910C94B4
:100550005C020436110514F4CD2BA1F7DF91CF9185
:100560001F910F91089560E283E090E00C94790769
:100570004AE06BE472E08091CB019091CC010E9443
:10058000321A6BE472E08AE292E00E94C61A6BE0D3
:1005900071E08AE292E00E94BB1A4AE06BE472E0EA
:1005A0008091B7019091B8010E94321A6BE472E019
:1005B0008AE292E00E94BB1A6BE071E08AE292E06C
:1005C0000E94BB1A4AE06BE472E08091B9019091FD
:1005D000BA010E94321A6BE472E08AE292E00E9451
:1005E000BB1A6BE071E08AE292E00E94BB1A4AE01B
:1005F0006BE472E08091BB019091BC010E94321AC1
:100600006BE472E08AE292E00E94BB1A6BE071E058
:100610008AE292E00E94BB1A4AE06BE472E08091A9
:10062000BD019091BE010E94321A6BE472E08AE231
:1006300092E00E94BB1A6BE071E08AE292E00E94B5
:10064000BB1A4AE06BE472E08091BF019091C00157
:100650000E94321A6BE472E08AE292E00E94BB1AB6
:100660006BE071E08AE292E00E94BB1A4AE06BE420
:1006700072E08091C1019091C2010E94321A6BE434
:1006800072E08AE292E00E94BB1A6BE071E08AE2BB
:1006900092E00E94BB1A4AE06BE472E080919B01F9
:1006A00090919C010E94321A6BE472E08AE292E01F
:1006B0000E94BB1A6BE071E08AE292E00E94BB1AD2
:1006C0008091B201882391F04AE06BE472E080915E
:1006D000B3019091B4010E94321A6BE472E08AE295
:1006E00092E00E94BB1A66E371E002C065E371E02C
:1006F0008AE292E00E94BB1AEAE2F2E00190002056
:10070000E9F73197AF014A5252406AE272E080E461
:1007100091E00E94CD0042E050E068E371E080E4A7
:1007200091E00C94CD004F925F926F927F92AF92C6
:10073000BF92DF92EF92FF920F931F93CF93DF93BD
:100740007C01D62EEC01CC0FDD1FCC0FDD1F870105
:10075000000F111F662339F1CE0189599D4F3C01CD
:10076000FC0180819181A281B381892B8A2B8B2B03
:10077000D1F4C8018F599D4F5C01FC0180819181AA
:10078000892B89F40E942E08F30160837183828390
:10079000938381E090E0F50191838083F801E55A2D
:1007A000FD4F11821082CE0189599D4F5C01FC01E1
:1007B0004080518062807380F0EB4F0EF4E05F1E4A
:1007C000611C711C0E942E084616570668067906A1
:1007D000D0F4F5011082118212821382F801EF59D0
:1007E000FD4F11821082F801E55AFD4F11821082EF
:1007F000FE01E056FE4F1082118212821382F70131
:10080000E853FE4F1082C8018F599D4F5C01FC01D7
:10081000808191818130910539F08430910509F40E
:100820004CC0D110AAC074C0D11009C0F801E55A5B
:10083000FD4F8081918101969183808369C0FE0183
:10084000E959FD4F40805180628073800E942E08DC
:10085000DC01CB018897A109B109481659066A063F
:100860007B0670F5C801855A9D4F3C01FC018081D3
:100870009181449728F582E090E0F501918380838F
:100880000E942E08FE01E056FE4F60837183828332
:100890009383F701E853FE4F81E08083F3011182D7
:1008A00010820E942E080E942E08FE01E959FD4F79
:1008B000608371838283938303C0DD2009F4B6CF04
:1008C000D1105EC0F801EF59FD4F808191810397EF
:1008D00009F0EFC0FE01E15BFD4F40805180628076
:1008E00073800E942E08DC01CB018C5D9540A1092C
:1008F000B10984159505A605B70508F0DAC00E9470
:100900002E08C959DD4F688379838A839B83D1C0C0
:10091000C8018F599D4F7C01FC0180819181029714
:1009200089F6CE0189599D4F5C01FC0140805180C0
:10093000628073800E942E08DC01CB01C297A1095E
:10094000B109481659066A067B0608F0BBCF83E05A
:1009500090E0F701918380830E942E08F501608367
:100960007183828393830E942E08FE01E15BFD4F19
:100970006083718382839383A5CF029709F493CF19
:10098000C8018F599D4F7C01FC01808191810397A3
:1009900099F40E942E08FE01E959FD4F608371838E
:1009A0008283938384E090E0F70191838083F80150
:1009B000E55AFD4F11821082C8018F599D4F7C016D
:1009C000FC0180819181049709F073C0CE0189599F
:1009D0009D4F5C01FC0140805180628073800E94C9
:1009E0002E08DC01CB01C297A109B10948165906AE
:1009F0006A067B0608F05DC0F801E55AFD4F80816C
:100A00009181449708F055C011821082F50110823F
:100A1000118212821382F701118210828091B1013A
:100A2000811112C0C056DE4F88819981AA81BB8195
:100A30008093C3019093C401A093C501B093C601F4
:100A4000188219821A821B828091AC01882389F155
:100A50001092AC01809102019091030120919B01C1
:100A600030919C01821B930B90939A018093990182
:100A700010929B0110929C0110929D0110929E0178
:100A80000E942E08609395017093960180939701C0
:100A900090939801DF91CF911F910F91FF90EF906C
:100AA000DF90BF90AF907F906F905F904F900C94CD
:100AB000B802DF91CF911F910F91FF90EF90DF90DF
:100AC000BF90AF907F906F905F904F900895AF92DE
:100AD000BF92CF92DF92EF92FF920F931F93CF932B
:100AE000DF938C01B62EC090C301D090C401E0907A
:100AF000C501F090C601C114D104E104F10429F448
:100B00008091B10181110EC00BC10E942E0828E80E
:100B1000C20E23E1D21EE11CF11CC616D706E80660
:100B2000F90670F7E801CC0FDD1FBB2009F1CE01FB
:100B30008C5D9D4F7C01FC0180819181892B39F571
:100B40000E942E08F801EE0FFF1FEE0FFF1FE85E58
:100B5000FD4F608371838283938381E090E0F7018E
:100B600091838083FE01EE5EFD4F1182108217C0DB
:100B7000FE01EC5DFD4F80819181019741F4FE0102
:100B8000EE5EFD4F80819181019691838083FE010D
:100B9000EC5DFD4F80819181019709F0C1C0000F8C
:100BA000111F000F111F085E1D4FF801C080D1807A
:100BB000E280F380FCEBCF0EF2E0DF1EE11CF11CC3
:100BC0000E942E08C616D706E806F90650F4F8016A
:100BD0001082118212821382CC5DDD4F198218823D
:100BE0009FC0BB2009F49CC0CE018C5D9D4F5C0171
:100BF000FC0180819181019709F092C0CE5EDD4FAA
:100C0000888199818C32914008F08AC0F801C080B7
:100C1000D180E280F380F0E4CF0EF1E0DF1EE11C32
:100C2000F11C0E942E08C616D706E806F90608F041
:100C300077C0F8011082118212821382F5011182AD
:100C400010828091B10181112CC00E942E08009168
:100C5000AD011091AE012091AF013091B001C09073
:100C6000C301D090C401E090C501F090C6010C19F9
:100C70001D092E093F09DC01CB01800F911FA21F26
:100C8000B31F8093AD019093AE01A093AF01B093D9
:100C9000B0011092C3011092C4011092C5011092CC
:100CA000C6018091B101882391F18091C701882309
:100CB00071F11092C7010E942E080091AD011091B0
:100CC000AE012091AF013091B001C090C301D0902E
:100CD000C401E090C501F090C6010C191D092E0950
:100CE0003F09DC01CB01800F911FA21FB31F80932E
:100CF000AD019093AE01A093AF01B093B0011092FB
:100D0000C3011092C4011092C5011092C6018091D6
:100D10009F01882329F08091AC01811110929F01DD
:100D2000DF91CF911F910F91FF90EF90DF90CF90C7
:100D3000BF90AF900895833081F028F4813099F00E
:100D40008230A1F008958730A9F08830B9F084305E
:100D5000D1F4809180008F7D03C0809180008F77D7
:100D600080938000089584B58F7702C084B58F7D0D
:100D700084BD08958091B0008F7703C08091B0004A
:100D80008F7D8093B0000895CF93DF93282F30E0BC
:100D9000F901E255FF4F8491F901E656FF4FD491D6
:100DA000F901EA57FF4FC491CC2391F081110E94C1
:100DB0009B06EC2FF0E0EE0FFF1FE458FF4FA591CC
:100DC000B491EC91ED2381E090E021F480E002C049
:100DD00080E090E0DF91CF9108951F93CF93DF9350
:100DE000282F30E0F901E255FF4F8491F901E656D2
:100DF000FF4FD491F901EA57FF4FC491CC23C1F0C2
:100E0000162F81110E949B06EC2FF0E0EE0FFF1FC2
:100E1000EE58FF4FA591B4919FB7F894111104C0FB
:100E20008C91D095D82302C0EC91DE2BDC939FBF30
:100E3000DF91CF911F910895CF92DF92EF92FF92B1
:100E40000F931F93CF93DF9300D0CDB7DEB76983A5
:100E50004A83880F991F0091090310910A03000F1C
:100E6000111FE3EBF2E09F01235B324020173107B3
:100E700014F41192F8CF2981FC01ED54FD4F218328
:100E80008A81808360E0809107030E94ED0610163E
:100E9000110604F501501109F801ED54FD4FE080F1
:100EA000D0900503C090030388E0F82E6E2D661FD6
:100EB0006627661F8C2D0E94ED06EE0C61E08D2DDD
:100EC0000E94ED0660E08D2D0E94ED06FA94F1106F
:100ED000EDCFDDCF61E0809107030F900F90DF91A0
:100EE000CF911F910F91FF90EF90DF90CF900C94D6
:100EF000ED062091090330910A0312161306B4F48B
:100F00008830910598F467FD02C0E62F01C0E0E249
:100F1000F0E0EE53FF4F4491FC01ED54FD4F408B48
:100F200061E0680F80E090E00C941C070895462F64
:100F30002091090330910A03121613066CF48830CD
:100F4000910550F4FC01ED54FD4F608B61E0680F9A
:100F500080E090E00C941C070895EF92FF920F93AD
:100F60001F93CF937C018C0183E0000F111F8A95A2
:100F7000E1F70D531D4FC1E0F80111928F0140E0E0
:100F80006C2FC7010E941C07CF5FC930A9F7CF9112
:100F90001F910F91FF90EF900895CF93DF9390E012
:100FA000FC01E656FF4F2491FC01EA57FF4F849164
:100FB000882361F190E0880F991FFC01E859FF4FE9
:100FC000C591D491FC01EE58FF4FA591B4916111E8
:100FD00009C09FB7F8948881209582238883EC917B
:100FE0002E230BC0623061F49FB7F8948881322FB2
:100FF000309583238883EC912E2B2C939FBF06C0C2
:101000008FB7F894E8812E2B28838FBFDF91CF9183
:1010100008953FB7F8948091100390911103A09127
:101020001203B091130326B5A89B05C02F3F19F0FA
:101030000196A11DB11D3FBFBA2FA92F982F882758
:10104000820F911DA11DB11DBC01CD0142E0660FB3
:10105000771F881F991F4A95D1F708952FB7F894E5
:1010600060910C0370910D0380910E0390910F031A
:101070002FBF0895CF92DF92EF92FF920F931F93AD
:10108000CF93DF93EC0188858B7F8887CE010E9408
:10109000A301182F888586958170181759F00E9432
:1010A0002E086A837B838C839D83988582E08927C1
:1010B00088873AC00E942E08CA80DB80EC80FD80C1
:1010C000AB01BC014C195D096E097F098E819F81BE
:1010D000A0E0B0E0481759076A077B0728F1888528
:1010E0008170181709F10E942E086A837B838C8314
:1010F0009D83988581E08927846088870E942E08D7
:1011000009851A852B853C85DC01CB01801B910B61
:10111000A20BB30B8D879E87AF87B88B0E942E08DA
:1011200069877A878B879C87888582FB882780F9E7
:10113000DF91CF911F910F91FF90EF90DF90CF90B3
:101140000895CF93DF93EC0118860E94A3018823B2
:1011500019F08885836088870E942E086A837B83C4
:101160008C839D83DF91CF9108951F920F920FB6CC
:101170000F9211242F933F938F939F93AF93BF931D
:1011800080910C0390910D03A0910E03B0910F0379
:1011900030910B0323E0230F2D3720F40196A11D7E
:1011A000B11D05C026E8230F0296A11DB11D209395
:1011B0000B0380930C0390930D03A0930E03B09345
:1011C0000F038091100390911103A0911203B0912D
:1011D00013030196A11DB11D809310039093110379
:1011E000A0931203B0931303BF91AF919F918F917E
:1011F0003F912F910F900FBE0F901F901895CF9396
:10120000DF93CDB7DEB760970FB6F894DEBF0FBEA1
:10121000CDBF789484B5826084BD84B5816084BD7F
:1012200085B5826085BD85B5816085BD80916E0084
:10123000816080936E0010928100809181008260B5
:1012400080938100809181008160809381008091F2
:1012500080008160809380008091B10084608093E1
:10126000B1008091B00081608093B00080917A00DD
:10127000846080937A0080917A00826080937A0003
:1012800080917A00816080937A0080917A008068F2
:1012900080937A001092C1008091090390910A0313
:1012A0001816190634F441E06CE080E090E00E94EA
:1012B0001C078091090390910A031816190634F44B
:1012C00048E06AE080E090E00E941C0780910903FA
:1012D00090910A031816190624F480E090E00E9409
:1012E000AD070E9409084B015C016DEEC62E63E05C
:1012F000D62EE12CF12C0E940908DC01CB018819C3
:101300009909AA09BB09883E9340A105B10598F344
:1013100021E0C21AD108E108F10838EE830E33E06B
:10132000931EA11CB11CC114D104E104F10419F7EE
:1013300010925B0110925A011092590110925801BB
:1013400010925701109256018DE991E090935D0142
:1013500080935C0190914C01963108F058C02DEBC0
:1013600030E030935701209356012BE931E0309360
:101370005901209358012CE231E030935B01209316
:101380005A0140916800983058F031E09E3008F4DE
:1013900030E021E0822F01C0880F3A95EAF701C0C2
:1013A00084E0842B80936800983038F09E3040F0C1
:1013B000963148F42CE630E008C02DE630E005C058
:1013C0002BE630E002C020E030E03093540120935F
:1013D0005301983030F481E001C0880F9A95EAF704
:1013E0000EC0292F30E09E3018F42850310902C079
:1013F0002E50310981E001C0880F2A95EAF78093C9
:10140000550180915C0190915D010197F1F7809108
:101410005A0190915B01892B49F1E0913E01F091D5
:101420003F0151E0E034F50709F1309739F0A38925
:10143000B4899C918589809589238C9380915E01E4
:101440008E7F80935E0110923D0110923C0180E4FA
:1014500091E090933F0180933E01E0915301F09120
:101460005401908180915501892B808360E082E056
:101470000E94CD0760E083E00E94CD0760E084E039
:101480000E94CD0782E08093940183E891E00E945E
:10149000A10884E190E090938A018093890183E020
:1014A0008093820181E791E00E94A108A4E1B0E06D
:1014B000B0937801A093770184E0809370018FE569
:1014C00091E00E94A10834E1C32ED12CD092660194
:1014D000C092650161E085E00E94CD0761E085E092
:1014E0000E94ED0662E08EE00E94CD0762E08FE090
:1014F0000E94CD0762E080E10E94CD0762E081E1B9
:101500000E94CD070CE310E043EC242E41E0342E82
:10151000412C512C320143948EE00E94C4069A83E0
:1015200089838FE00E94C4069E838D8380E10E94A0
:10153000C4067C0181E10E94C40698878F83809154
:101540001102863008F083C28EE00E94C4065C015E
:101550008FE00E94C4066C0180E10E94C4069A8755
:10156000898781E10E94C4069C878B87AB28B9F4E8
:101570000E942E08DC01CB01845F9140A109B109D2
:101580008090DE019090DF01A090E001B090E10139
:1015900088169906AA06BB0610F40C94FE15CD28F1
:1015A00009F0C9C00E942E08DC01CB01845F914084
:1015B000A109B1098090D9019090DA01A090DB01D6
:1015C000B090DC0188169906AA06BB0608F0B3C0E5
:1015D0000E942E086093D9017093DA018093DB0199
:1015E0009093DC0160E287E090E00E94790760E27E
:1015F00086E090E00E94790760E285E090E00E943A
:10160000790760E284E090E00E94790760E283E07D
:1016100090E00E94790760E282E090E00E94790702
:1016200060E281E090E00E94790760E280E090E073
:101630000E94790780911102863038F48F5F809381
:1016400011021092D0011092CF01809111028630C8
:1016500009F071C00E942E084B015C01C090090185
:10166000D0900A01C6010D2C000CAA0BBB0B809375
:10167000CB019093CC01A093CD01B093CE0180918A
:10168000000190910101092E000CAA0BBB0B809365
:10169000B3019093B401A093B501B093B601109239
:1016A00008021092090210920A0210920B0228EE10
:1016B00033E0D6010E947B1ADC01CB01880D991D15
:1016C000AA1DBB1D8093AD019093AE01A093AF0105
:1016D000B093B0010E942E086093C3017093C401BF
:1016E0008093C5019093C6011092B8011092B70182
:1016F0001092BA011092B9011092BC011092BB0174
:101700001092BE011092BD011092C0011092BF0153
:101710001092C2011092C10110920C021092B201FB
:101720001092AC0110929F01C6010E942C020E94EF
:10173000B3020E94B802C984DA84CD2819F010924D
:10174000D00137C00E942E08DC01CB01845F91409C
:10175000A109B1098090D5019090D601A090D70140
:10176000B090D80188169906AA06BB0610F50E940B
:101770002E086093D5017093D6018093D701909382
:10178000D8018091D001863018F48F5F8093D0010A
:1017900080911102833011F40C94641610F00C94B3
:1017A0000C16813011F40C941416823011F40C9440
:1017B0003C16CB84DC84CD2819F01092CF0134C0C4
:1017C0000E942E08DC01CB01845F9140A109B10980
:1017D0008090D1019090D201A090D301B090D4011B
:1017E00088169906AA06BB06F8F40E942E08609394
:1017F000D1017093D2018093D3019093D401809151
:10180000CF01863018F48F5F8093CF018091110251
:10181000833011F40C94CC1608F0D3C0813009F455
:1018200066C0823009F491C080911102823009F4BF
:10183000B2C030F4882369F0813009F47EC07FCED5
:10184000843009F4C9C008F4B4C0853009F4F5C087
:1018500076CE6BE587E090E00E94970765E686E02C
:1018600090E00E9479076FE085E090E00E94970782
:101870006EE384E090E00E94970760E783E090E0E9
:101880000E94790760E282E090E00E94790760E2BE
:1018900081E090E00E94790760E280E090E00E94A1
:1018A00079071092B8011092B7011092BA01109204
:1018B000B9011092BC011092BB011092BE011092AE
:1018C000BD011092C0011092BF011092C20110928E
:1018D000C10110929B0110929C0110929D011092E7
:1018E0009E011092AC0121E02093C70128CE4091C7
:1018F000CF01E42FF0E0EE0FFF1FE35FFE4F2091DA
:10190000090130910A0180819181281B390B3093A4
:101910000A0120930901463011F40C94AC16809111
:10192000090190910A01181619060CF47DCF81E087
:1019300090E090930A0180930901809109019091B0
:101940000A010E942C0281E47FC04091CF01E42F64
:10195000F0E0EE0FFF1FE35FFE4F20910401309196
:10196000050180819181281B390B3093050120935B
:101970000401463011F40C94BC168091040190913E
:101980000501181619060CF44FCF81E090E09093F2
:1019900005018093040180910401909105010E944A
:1019A0002C0282E451C081E090E090930301809387
:1019B000020180910201909103010E942C0283E4B4
:1019C00043C0843089F48091B101DD24D3948D2506
:1019D0008093B1018093C7016091B10187E090E0ED
:1019E0000E94790784E430C0853009F01DCF409112
:1019F000CF01E42FF0E0EE0FFF1FE35FFE4F2091D9
:101A000000013091010180819181281B390B3093B5
:101A1000010120930001463011F40C94E6168091E8
:101A2000000190910101181619060CF4FDCE81E019
:101A300090E09093010180930001809100019091CA
:101A400001010E942C0285E40E946C0278CDC980BD
:101A5000DA80CD28B9F40E942E08DC01CB01885E23
:101A60009340A109B1098090DE019090DF01A09020
:101A7000E001B090E10188169906AA06BB0610F4B1
:101A80000C94F6168090DE019090DF01A090E001AA
:101A9000B090E10120ED820E27E0921EA11CB11C46
:101AA0000E942E0886169706A806B90670F4809143
:101AB000DD01882341F08091CB019091CC010E94FF
:101AC0002C020E94B3021092DD01D090DD01DD20D6
:101AD00041F165E087E090E00E94970765E686E0C7
:101AE00090E00E9479076BE585E090E00E949707FF
:101AF00065E684E090E00E9479076FE083E090E083
:101B00000E94970760E282E090E00E94790760E21D
:101B100081E090E00E94790760E280E090E00E941E
:101B200079074D815E81452BA9F50E942E08DC01C5
:101B3000CB01885E9340A109B1098090D9019090B2
:101B4000DA01A090DB01B090DC0188169906AA06A4
:101B5000BB0600F50E942E086093D9017093DA014C
:101B60008093DB019093DC01D110109211028091DF
:101B7000C3019091C401A091C501B091C601892B08
:101B80008A2B8B2B11F00C9405178091B1018111D8
:101B90000C940517E114F104F1F50E942E08DC0104
:101BA000CB01885E9340A109B1098090D501909046
:101BB000D601A090D701B090D80188169906AA0640
:101BC000BB0610F40C943F1726C001968630910591
:101BD00079F02D913D91232BC1F7880F991FDC01DE
:101BE000A954BE4F80910401909105018D939C935F
:101BF00081919191892B19F09FEFE91AF90A2E161C
:101C00003F06B1F7F0920302E09202026E2D83E0EC
:101C100090E00E947907CF80D884CD2809F05AC07F
:101C20000E942E08DC01CB0180529340A109B1092A
:101C3000C090D101D090D201E090D301F090D401B6
:101C4000C816D906EA06FB0608F044C00E942E0812
:101C50006093D1017093D2018093D3019093D4010A
:101C6000C090C301D090C401E090C501F090C601BE
:101C70008091B101C114D104E104F10411F40C9478
:101C80005A1781110C9450170E942E088090AD01B4
:101C90009090AE01A090AF01B090B0018C189D085B
:101CA000AE08BF08DC01CB01880D991DAA1DBB1D24
:101CB0008093AD019093AE01A093AF01B093B001BA
:101CC0001092C3011092C4011092C5011092C60176
:101CD0000E94B80280910702882309F46CC1813008
:101CE00089F40E942E086093E2017093E3018093CF
:101CF000E4019093E50182E08093070260E085E0D3
:101D00000E94ED06809107028230C1F40E942E08E5
:101D1000DC01CB018C5D9540A109B109C090E201C5
:101D2000D090E301E090E401F090E501C816D906F7
:101D3000EA06FB06C0F483E0809307028091070265
:101D4000833089F40E942E086093E2017093E301CE
:101D50008093E4019093E50184E08093070261E0C1
:101D600085E00E94ED06809107028430C1F40E9454
:101D70002E08DC01CB01845F9140A109B109C0901C
:101D8000E201D090E301E090E401F090E501C81693
:101D9000D906EA06FB06C0F485E08093070280912D
:101DA0000702853089F40E942E086093E201709347
:101DB000E3018093E4019093E50186E080930702BC
:101DC00060E085E00E94ED06809107028630C1F454
:101DD0000E942E08DC01CB018C5D9540A109B10960
:101DE000C090E201D090E301E090E401F090E501C1
:101DF000C816D906EA06FB06C0F487E080930702FE
:101E000080910702873089F40E942E086093E201D6
:101E10007093E3018093E4019093E50188E080935F
:101E2000070261E085E00E94ED068091070288309C
:101E3000C9F40E942E08DC01CB01845F9140A10906
:101E4000B109C090E201D090E301E090E401F0908C
:101E5000E501C816D906EA06FB06D0F429E0D22E21
:101E6000D092070280910702893091F40E942E08D7
:101E70006093E2017093E3018093E4019093E501A4
:101E80009AE0E92EE092070260E085E00E94ED060C
:101E9000809107028A30C9F40E942E08DC01CB0130
:101EA0008C5D9540A109B109C090E201D090E30199
:101EB000E090E401F090E501C816D906EA06FB06B9
:101EC000C8F48BE0F82EF0920702809107028B3065
:101ED00089F40E942E086093E2017093E3018093DD
:101EE000E4019093E5012CE02093070261E085E096
:101EF0000E94ED06809107028C30C1F40E942E08EA
:101F0000DC01CB01845F9140A109B109C090E201DD
:101F1000D090E301E090E401F090E501C816D90605
:101F2000EA06FB06C0F43DE0309307028091070209
:101F30008D3089F40E942E086093E2017093E301D2
:101F40008093E4019093E5018EE08093070260E0C6
:101F500085E00E94ED06809107028E30C1F40E9458
:101F60002E08DC01CB018C5D9540A109B109C09020
:101F7000E201D090E301E090E401F090E501C816A1
:101F8000D906EA06FB06B8F48FE080930702809139
:101F900007028F3081F40E942E086093E201709353
:101FA000E3018093E4019093E50161E085E00E9404
:101FB000ED061092070280910602882309F4CBC136
:101FC000813089F40E942E086093E2017093E3014E
:101FD0008093E4019093E50182E08093060260E043
:101FE00085E00E94ED06809106028230C1F40E94D5
:101FF0002E08DC01CB018A5F9109A109B109C090CB
:10200000E201D090E301E090E401F090E501C81610
:10201000D906EA06FB06C0F483E0809306028091AD
:102020000602833089F40E942E086093E2017093C7
:10203000E3018093E4019093E50184E0809306023C
:1020400061E085E00E94ED06809106028430C1F4D3
:102050000E942E08DC01CB01885C9109A109B1091D
:10206000C090E201D090E301E090E401F090E5013E
:10207000C816D906EA06FB06C0F485E0809306027E
:1020800080910602853089F40E942E086093E20157
:102090007093E3018093E4019093E50186E08093DF
:1020A000060260E085E00E94ED068091060286301F
:1020B000C1F40E942E08DC01CB018A5F9109A109BD
:1020C000B109C090E201D090E301E090E401F0900A
:1020D000E501C816D906EA06FB06C0F487E080933E
:1020E000060280910602873089F40E942E086093D0
:1020F000E2017093E3018093E4019093E50188E0AD
:102100008093060261E085E00E94ED068091060260
:102110008830C1F40E942E08DC01CB01885C910953
:10212000A109B109C090E201D090E301E090E4017F
:10213000F090E501C816D906EA06FB06C0F449E0AE
:102140004093060280910602893089F40E942E088D
:102150006093E2017093E3018093E4019093E501C1
:102160005AE05093060260E085E00E94ED068091FF
:1021700006028A30C1F40E942E08DC01CB018A5F7E
:102180009109A109B109C090E201D090E301E0906A
:10219000E401F090E501C816D906EA06FB06C0F492
:1021A0008BE080930602809106028B3089F40E94B6
:1021B0002E086093E2017093E3018093E401909311
:1021C000E5019CE09093060261E085E00E94ED0647
:1021D000809106028C30C1F40E942E08DC01CB01F4
:1021E000885C9109A109B109C090E201D090E30196
:1021F000E090E401F090E501C816D906EA06FB0676
:10220000C0F4ADE0A0930602809106028D3089F4FF
:102210000E942E086093E2017093E3018093E40131
:102220009093E5018EE08093060260E085E00E94D5
:10223000ED06809106028E30C1F40E942E08DC016A
:10224000CB018A5F9109A109B109C090E201D09048
:10225000E301E090E401F090E501C816D906EA0632
:10226000FB06C0F48FE080930602809106028F3057
:1022700089F40E942E086093E2017093E301809339
:10228000E4019093E50180E18093060261E085E03E
:102290000E94ED06809106028031C1F40E942E0852
:1022A000DC01CB01885C9109A109B109C090E20170
:1022B000D090E301E090E401F090E501C816D90662
:1022C000EA06FB06C0F481E18093060280910602D3
:1022D000813189F40E942E086093E2017093E3013A
:1022E0008093E4019093E50182E18093060260E02F
:1022F00085E00E94ED06809106028231C1F40E94C1
:102300002E08DC01CB018A5F9109A109B109C090B7
:10231000E201D090E301E090E401F090E501C816FD
:10232000D906EA06FB06B8F483E1809306028091A1
:102330000602833181F40E942E086093E2017093BB
:10234000E3018093E4019093E50161E085E00E9460
:10235000ED061092060283E891E00E943A0881E7B8
:1023600091E00E943A088FE591E00E943A0880913E
:102370008B0180FF16C0C090EE01D090EF01E0907D
:10238000F001F090F101B4E6CB0ED11CE11CF11C80
:102390000E942E08C616D706E806F90608F4E1C51D
:1023A0003CC0C090FE01D090FF01E0900002F09090
:1023B0000102C114D104E104F104E1F5C090FA0175
:1023C000D090FB01E090FC01F090FD0120EDC20EE9
:1023D00027E0D21EE11CF11C0E942E08C616D7066B
:1023E000E806F906B0F4C090F601D090F701E0904D
:1023F000F801F090F90130EDC30E37E0D31EE11C77
:10240000F11C0E942E08C616D706E806F90608F445
:1024100089C580918B0180FDAECFC090FE01D09028
:10242000FF01E0900002F0900102C114D104E10428
:10243000F10469F00E942E0844E1C40ED11CE11C95
:10244000F11CC616D706E806F90608F495C5809172
:10245000790180FF16C0C090EE01D090EF01E090AE
:10246000F001F090F10154E6C50ED11CE11CF11C05
:102470000E942E08C616D706E806F90608F4A9C574
:102480003CC0C090EA01D090EB01E090EC01F090EC
:10249000ED01C114D104E104F104E1F5C090F201B1
:1024A000D090F301E090F401F090F50180EDC80EBA
:1024B00087E0D81EE11CF11C0E942E08C616D70624
:1024C000E806F906B0F4C090F601D090F701E0906C
:1024D000F801F090F90190EDC90E97E0D91EE11CCA
:1024E000F11C0E942E08C616D706E806F90608F465
:1024F00051C58091790180FDAECFC090EA01D090A6
:10250000EB01E090EC01F090ED01C114D104E10485
:10251000F10469F00E942E08A4E1CA0ED11CE11C4E
:10252000F11CC616D706E806F90608F45DC58091C9
:10253000670180FF16C0C090EE01D090EF01E090DF
:10254000F001F090F101B4E6CB0ED11CE11CF11CBE
:102550000E942E08C616D706E806F90608F471C5CB
:102560003CC0C090E601D090E701E090E801F09017
:10257000E901C114D104E104F104E1F5C090FA01CC
:10258000D090FB01E090FC01F090FD0120EDC20E27
:1025900027E0D21EE11CF11C0E942E08C616D706A9
:1025A000E806F906B0F4C090F201D090F301E09093
:1025B000F401F090F50130EDC30E37E0D31EE11CBD
:1025C000F11C0E942E08C616D706E806F90608F484
:1025D00019C58091670180FDAECFC090E601D09013
:1025E000E701E090E801F090E901C114D104E104B1
:1025F000F10469F00E942E0844E1C40ED11CE11CD4
:10260000F11CC616D706E806F90608F425C5809120
:10261000CB019091CC01A091CD01B091CE01892B3D
:102620008A2B8B2B09F0A6C08091C8018111A2C012
:102630008091C90181119EC08091CA0181119AC007
:1026400051E05093C7018091090190910A01092E30
:10265000000CAA0BBB0B8093CB019093CC01A093F1
:10266000CD01B093CE014092C3015092C40160925B
:10267000C5017092C60110920D0210920E021092C6
:102680000F021092100280910C028823C9F110925F
:10269000B8011092B7011092BA011092B9011092CC
:1026A000BC011092BB011092BE011092BD011092AC
:1026B000C0011092BF011092C2011092C10110928C
:1026C0000C024092B3015092B4016092B501709235
:1026D000B60160E283E090E00E94790760E282E068
:1026E00090E00E94790760E281E090E00E94790723
:1026F00060E280E090E00E9479070E94B80208C082
:1027000081E080930C0267E382E090E00E949707EB
:102710008091080290910902A0910A02B0910B02E7
:10272000892B8A2B8B2B19F58091B20181111FC047
:102730000E942E086B017C012091B3013091B401FD
:102740004091B5015091B601A8EEB3E00E94821A03
:10275000C60ED71EE81EF91EC0920802D0920902CA
:10276000E0920A02F0920B0291E09093B201A1E094
:10277000A09307028090CB019090CC01A090CD0156
:10278000B090CE01A8EEB3E0A50194010E94821A98
:10279000C090AD01D090AE01E090AF01F090B001DB
:1027A000A7019601261B370B480B590B2D873E8737
:1027B0004F87588B0E942E08C0900D02D0900E02B9
:1027C000E0900F02F0901002C982DA82EB82FC8264
:1027D000AB01BC014C195D096E097F09CD84DE8413
:1027E000EF84F888C416D506E606F70608F057C049
:1027F0004091C3015091C4016091C5017091C6011F
:10280000452B462B472B49F02091B101222309F497
:1028100046C02091C701211142C0F090AC01FF20B9
:1028200009F429C421E082169104A104B10409F03D
:1028300022C489819A81AB81BC8188519C4FAF4F62
:10284000BF4F80930D0290930E02A0930F02B0939E
:1028500010028091CB019091CC010E942C026091DA
:10286000040170910501E7EBF1E080E090E0208148
:1028700031812115310509F03EC432962E163F06EE
:10288000B1F7709305026093040290930302809362
:102890000202F1103BC40E948F020E94B802809194
:1028A000B201882309F488C08090B3019090B401EC
:1028B000A090B501B090B601A8EEB3E0A5019401D7
:1028C0000E94821AC0900802D0900902E0900A0289
:1028D000F0900B02C61AD70AE80AF90A0E942E08DD
:1028E000C616D706E806F90608F066C021E0821A87
:1028F0009108A108B1088092B3019092B401A0920E
:10290000B501B092B601C4010E942C0289288A2820
:102910008B2809F04FC01092080210920902109201
:102920000A0210920B028091000190910101092E80
:10293000000CAA0BBB0B8093B3019093B401A0933E
:10294000B501B093B6011092B2010E942E084B015E
:102950005C01E0900901F0900A01C7010F2C000C06
:10296000AA0BBB0B8093CB019093CC01A093CD011C
:10297000B093CE0128EE33E0D7010E947B1ADC0130
:10298000CB01880D991DAA1DBB1D8093AD019093AD
:10299000AE01A093AF01B093B0010E942E086093E6
:1029A000C3017093C4018093C5019093C601C70110
:1029B0000E942C020E94B802E0909901F0909A01C6
:1029C000E114F10409F49DC0809095019090960166
:1029D000A0909701B09098010E942E08A501940143
:1029E00028513C4F4F4F5F4F62177307840795077D
:1029F00008F46DC00E942E08A501940124523A4F9C
:102A00004F4F5F4F621773078407950718F40E94B2
:102A1000710277C00E942E08A50194012C53364FF5
:102A20004F4F5F4F621773078407950708F44FC035
:102A30000E942E08A50194012854344F4F4F5F4F38
:102A4000621773078407950710F30E942E08A501EB
:102A500094012056304F4F4F5F4F62177307840722
:102A60009507A8F10E942E08A50194012C563E4E10
:102A70004F4F5F4F621773078407950740F20E941C
:102A80002E08A501940124583A4E4F4F5F4F62170C
:102A9000730784079507D8F00E942E08A5019401BA
:102AA0002059384E4F4F5F4F6217730784079507C1
:102AB00008F4ADCF0E942E0858E5850E5BE1951E07
:102AC000A11CB11C681579058A059B0520F4C70176
:102AD0000E94800216C010929A01109299011092E1
:102AE00095011092960110929701109298016091B1
:102AF00004027091050280910202909103020E94EB
:102B00008F02F0900801FF2031F060E085E00E9424
:102B1000ED0681E609C080910701882341F060E05D
:102B200085E00E94ED0682E60E94270216C0809191
:102B30000601882331F060E085E00E94ED0683E61F
:102B4000F3CF80910702811108C0809106028111A4
:102B500004C061E085E00E94ED068091C301909180
:102B6000C401A091C501B091C601892B8A2B8B2B82
:102B7000A9F48091B201811111C06F2D80E090E025
:102B80000E9493036091070181E090E00E9493030B
:102B90006091060182E090E00E9493038091C3015E
:102BA0009091C401A091C501B091C601892B8A2BD7
:102BB0008B2B21F48091B1018823B1F08091B20177
:102BC000811112C06091080180E090E00E946705C9
:102BD0006091070181E090E00E9467056091060125
:102BE00082E090E00E94670580E090E0892B11F47C
:102BF0000C948C0A0E9400000C948C0A0E942E08EF
:102C00006093DE017093DF018093E0019093E10116
:102C1000109211020C94CF0A843009F46AC08530F6
:102C200009F472C00C94D90B4091D001E42FF0E06C
:102C3000EE0FFF1FE35FFE4F20813181809109017C
:102C400090910A01280F391F30930A01209309013E
:102C5000463011F00C94D90BC901B8010E94671AD3
:102C6000009711F40C94D90B281B390B30930A01EF
:102C7000209309010C94D90B4091D001E42FF0E08E
:102C8000EE0FFF1FE35FFE4F208131818091040131
:102C900090910501280F391F3093050120930401FD
:102CA000463011F00C94D90BC901B8010E94671A83
:102CB000009711F40C94D90B281B390B30930501A4
:102CC000209304010C94D90BE091D001F0E0EE0FB9
:102CD000FF1FE35FFE4F809102019091030120816D
:102CE0003181820F931F90930301809302010C9412
:102CF000D90B8091B101DD24D3948D258093B1014E
:102D00008093C7010C94D90B4091D001E42FF0E0DF
:102D1000EE0FFF1FE35FFE4F2081318180910001A4
:102D200090910101280F391F309301012093000178
:102D3000463011F00C94D90BC901B8010E94671AF2
:102D4000009711F40C94D90B281B390B3093010117
:102D5000209300010C94D90BC901B8010E94671A95
:102D6000009711F40C948F0C281B390B30930A0137
:102D7000209309010C948F0CC901B8010E94671AB5
:102D8000009711F40C94BD0C281B390B30930501EE
:102D9000209304010C94BD0CE091CF01F0E0EE0F04
:102DA000FF1FE35FFE4F809102019091030120819C
:102DB0003181821B930B1816190614F00C94D30C56
:102DC00090930301809302010C94140CC901B80183
:102DD0000E94671A009711F40C940F0D281B390BF1
:102DE00030930101209300010C940F0D0E942E08D6
:102DF0006093DE017093DF018093E0019093E10125
:102E000091E09093DD010C94420D8091AC018823F8
:102E1000A9F010929B0110929C0110929D011092BA
:102E20009E011092AC0160910402709105028091A4
:102E30000202909103020E948F021DC08091B10195
:102E4000882319F051E050939F0181E08093AC01F9
:102E50008091020190910301AC01092E000C660BD8
:102E6000770B40939B0150939C0160939D0170935D
:102E70009E010E945C020E94B8020C94CA0D0E943E
:102E80002E086093D5017093D6018093D70190935B
:102E9000D801E7EBF1E0DF0180E090E00C94E90D70
:102EA0008091C701882311F40C94680E1092C70119
:102EB0000C94440E81110AC00E942E086093C30135
:102EC0007093C4018093C5019093C6018091AC01B9
:102ED0008823C1F080919F01811114C01092AC0130
:102EE00010929B0110929C0110929D0110929E01E4
:102EF0006091040270910502809102029091030298
:102F00000E948F0280919F01882311F40C94680E17
:102F10008091AC01882311F40C94680E10929F01EB
:102F20000C94680E0E942E086093FE017093FF01BE
:102F300080930002909301020E942E086093F20198
:102F40007093F3018093F4019093F5010E942E0891
:102F50006093EE017093EF018093F0019093F10183
:102F600058CA1092FE011092FF01109200021092B6
:102F700001021092080151CAA1E0A09308010E9429
:102F80002E086093F2017093F3018093F401909303
:102F9000F5015DCA0E942E086093EA017093EB016F
:102FA0008093EC019093ED010E942E086093FA014A
:102FB0007093FB018093FC019093FD010E942E0809
:102FC0006093EE017093EF018093F0019093F10113
:102FD00090CA1092EA011092EB011092EC0110924B
:102FE000ED011092070189CAB1E0B09307010E9478
:102FF0002E086093FA017093FB018093FC0190937B
:10300000FD0195CA0E942E086093E6017093E701C6
:103010008093E8019093E9010E942E086093F601E5
:103020007093F7018093F8019093F9010E942E08A4
:103030006093EE017093EF018093F0019093F101A2
:10304000C8CA1092E6011092E7011092E8011092AE
:10305000E90110920601C1CACC24C394C0920601B2
:103060000E942E086093F6017093F7018093F80197
:103070009093F901CCCA81149104A104B10469F0C0
:1030800031E0831A9108A108B1088092CB01909297
:10309000CC01A092CD01B092CE018091A00190917F
:1030A000A101A091A201B091A301892B8A2B8B2BA6
:1030B00009F0CFCB8091A4019091A501A091A60128
:1030C000B091A701892B8A2B8B2B09F0C2CB809161
:1030D000A8019091A901A091AA01B091AB01892BFF
:1030E0008A2B8B2B09F0B5CB1092C8011092C90125
:1030F0001092CA01AECB0196215031093183208351
:10310000261737070CF0B9CBB901B7CB8091B101C5
:103110008823A9F080919F01882389F08091020182
:10312000909103010196092E000CAA0BBB0B809312
:103130009B0190939C01A0939D01B0939E0180916F
:103140009B0190919C01A0919D01B0919E010097DF
:10315000A105B10569F00197A109B10980939B010F
:1031600090939C01A0939D01B0939E010E945C02EC
:1031700080919B0190919C01A0919D01B0919E0135
:10318000892B8A2B8B2B09F088CB80910D02909193
:103190000E02A0910F02B0911002892B8A2B8B2B6B
:1031A00051F40E942E086093C3017093C401809370
:1031B000C5019093C6011092AC0141E04093060214
:1031C000809102019091030190939A01809399015B
:1031D0000E942E0860939501709396018093970149
:1031E000909398015ACB87E291E0909341018093AC
:1031F000400180913E0190913F018054914071F4D3
:10320000E0915301F0915401908180915501809596
:103210008923808310923F0110923E010895CF933D
:10322000DF93109243011092420188EE93E0A0E0F8
:10323000B0E08093440190934501A0934601B09380
:10324000470187E291E09093410180934001109201
:103250005701109256011092590110925801109284
:103260005B0110925A0110925D0110925C01609115
:103270005E016E7F6D7F60935E016695617081E097
:10328000682788E00E94ED0661E088E00E94CD0793
:10329000E2EAF0E0E491E0935001EEE8F0E0E4913E
:1032A000F0E0EE0FFF1FEE58FF4F85919491909341
:1032B00052018093510160E089E00E94CD07809126
:1032C0005E0181FD04C061E089E00E94ED0689E0B5
:1032D00080934C01E3EAF0E0E491E0934D01EFE8E4
:1032E000F0E0E491F0E0EE0FFF1FE458FF4F85910E
:1032F000949190934F0180934E01CCE0D0E0D09315
:103300000403C09303038BE090E090930603809343
:1033100005038AE090E0909308038093070381E01F
:1033200090E090930A038093090361E08CE00E948F
:10333000CD0761E0809105030E94CD0761E0809197
:1033400007030E94CD0761E0809107030E94ED060C
:10335000D0930403C0930303E3ECF2E083E093E033
:1033600011928E179F07E1F7C0E0D0E0809109032A
:1033700090910A03C817D90794F540E06FE0CE0199
:103380000E941C07D7FD0CC08091090390910A038D
:10339000C817D9072CF447E06BE0CE010E941C0748
:1033A00040E069E0CE010E941C07D7FD16C0809165
:1033B000090390910A03C817D9071CF4CE010E9493
:1033C000AD078091090390910A03C817D9072CF41F
:1033D00040E06CE0CE010E941C072196C7CF1092FE
:1033E00085011092860110928701109288012AE0CF
:1033F00030E030938A012093890110928B018FE194
:1034000091E0909384018093830110929401109233
:10341000730110927401109275011092760130932D
:103420007801209377011092790190937201809333
:10343000710110928201109261011092620110924A
:10344000630110926401309366012093650110922C
:1034500067019093600180935F0110927001DF918A
:10346000CF910895BB274A3031F4992322F4BDE26D
:10347000909581959F4F0C943E1ABB27FB015527D1
:10348000AA27880F991FAA1FA41710F0A41B8395C1
:103490005051B9F7A05DAA3308F0A95DA193009738
:1034A00079F7B111B1931192CB010C94571ADC0149
:1034B000FC01672F71917723E1F7329704C07C916B
:1034C0006D9370836291AE17BF07C8F3089597FBA1
:1034D000072E16F4009407D077FD09D00E948D1AAC
:1034E00007FC05D03EF4909581959F4F0895709507
:1034F00061957F4F08950E94A71AB7FF0895821B18
:10350000930B08950E94A71AA59F900DB49F900D4C
:10351000A49F800D911D11240895AA1BBB1B51E18E
:1035200007C0AA1FBB1FA617B70710F0A61BB70B33
:10353000881F991F5A95A9F780959095BC01CD01D8
:103540000895EE0FFF1F0590F491E02D0994A29FBE
:10355000B001B39FC001A39F700D811D1124911D67
:10356000B29F700D811D1124911D089581E090E09E
:10357000F8940C94CD1AFB01DC010D900020E9F7C2
:10358000119701900D920020E1F70895FB01DC01F5
:1035900001900D920020E1F7089510E0C2EAD0E01A
:1035A00004C0FE010E94A11A2196C33AD107C9F7AF
:0435B000F894FFCFBD
:1035B4002C012D00780001010184033B000000016F
:1035C40000020005000A001E003C0000000000A3E9
:1035D400019F01000000001001CD009A010F01605D
:0C35E400017801F7003053000D0A0000D0
:00000001FF
